:040000008A110D282C
:10000800FE00030EF0000408F1000A08F2008A1549
:10001800892D8A155E2D6430BD0A3D02031C080037
:100028000330BD01BE0A3E02031C0800BF01BD012A
:10003800BE01612C83120313BB08031D5E28E70170
:10004800E70AE601E501670907397A06031D322840
:1000580050086705031D3228E501E50A650B4828A5
:100068004308670603193E280930C4006708C3001F
:10007800C2014A28C40B4A280A30C400420B45284A
:100088003C28C201C20A4A286709C3054308670613
:10009800031D5628420B5428660872248A115628D4
:1000A80058258A1103300310E70DE60A6602031883
:1000B80008002628C30108002708260403196F280A
:1000C800CC08031D6F28CC01CC0AC501D701AA01B1
:1000D800AB0103278A112830840083130008840A9F
:1000E800000403198528D708031D8528D701D70AD6
:1000F800BC01CC01C501A601A701AA01AB01D2012F
:10010800D20A0430263E0F278A1103199628C508FB
:10011800031D9628C501C50ACC01D701A601A70170
:1001280003278A114C0BBC286430BC0A3C020030FF
:10013800031CBA28BC01270202300319260203183F
:10014800AB2861248A11CC01A601A701B928013086
:10015800A6020030031CA703A702D201D20A260375
:100168002704031DB9280230BC00003005218A117C
:10017800570BE2286430BC0A3C02031CDF2800301D
:10018800BC0129020230031928020318D128BF250F
:100198008A11D701A801A901DF280130A80200307F
:1001A800031CA903A902D201D20A28032904031DAA
:1001B800DF280230BC00013005218A11450B0800F8
:1001C8006430BC0A3C02031C03290030BC012B022A
:1001D800023003192A020318F72858258A11C50185
:1001E800AA01AB0103290130AA02031CAB03D20107
:1001F800D20A2A032B040230031D0429BC00023052
:100208000529EA000130E8006A0A0C290310E80D04
:10021800FF3E031D0A296808E900520B3529D2015F
:1002280047086905031D3229EA08031D2229270802
:10023800E4002608E30082258A112F296A0B2B295E
:100248002908E4002808E30027268A112F29142703
:100258008A1164268A11D101D10A352961248A11AB
:10026800D101510B3E29470869050319080061248B
:10027800D101080047086905031D0800EA08031DA5
:100288004C292708E4002608E30082258A1158290A
:100298006A0B55292908E4002808E30027268A1153
:1002A800582914278A116426D101D10A0800073079
:1002B800FA05E901E90AEA01690907397A06031D1D
:1002C800FA294F086905031DCC296908CF040927B5
:1002D8008A118001840A80016A08023A031DEA082B
:1002E800031DAB293B0B7F290330BA0A3A02031CD2
:1002F8007F29BA01BB01BB08031DB22A5008690552
:100308006906031DB22A03106A0D2C3EA9268A111C
:10031800EA306402603003196302031C9829031051
:100328006A0D8C278A11B22AB0268A11A9268A1149
:10033800E7268A11CA228A11D6268A11EA080319E1
:10034800CC016A08023A031DB22AC501B22A500834
:1003580069056906031DB22AD70103106A0D2C3EF0
:10036800A9268A11EA306402603003196302031C6B
:10037800C12903106A0D8C278A11B0268A11A92673
:100388008A11E7268A11CA228A11D6268A11B22A28
:1003980003106A0D203E8400013083138007840A0D
:1003A8000318800A03106A0D203EA9268A11EA3034
:1003B8006402603003196302031CEB2903106A0D01
:1003C800203E840060308000EA30840A80004B08B8
:1003D80069056906031DB22A03106A0DD03E840020
:1003E80001308007840A0318800AB22A4F08690579
:1003F8006906031D4D2A6909CF0509278A11A12617
:100408008A112C3EC9268A11031C122A03106A0D70
:10041800203E8400A1268A112C3E182A6A0D2C3E03
:100428008400A1268A11203E84000008BC268A1177
:10043800460869056906031D4D2A003068028D309B
:10044800031967020318322A6908D004B7268A11EB
:10045800A1268A112C3EE0268A114D2A03106A0D26
:100468002C3E0F278A110319452AAC01AD01AE01B4
:10047800AF01B001B101BB08031D452AA601FD2645
:100488008A11B7268A11A1268A112C3EE0268A11E4
:10049800D001BB08031DB22AEA08031D5A2A4C0BD7
:1004A8005A2ACC01A601A70161248A116A0B632A82
:1004B800570B632AD701A801A901BF258A116A0829
:1004C800023A031D6E2A450B6E2AC501AA01AB012B
:1004D80058258A114B0869056906031DB22A0310BD
:1004E8006A0DD03E84008313A1268A11CA3EC9260C
:1004F8008A11031C872A03106A0DD03E8400A126A6
:100508008A11CA3E8D2A6A0DCA3E8400A1268A1124
:10051800D03E84000008BC268A11003068028D3065
:1005280003196702031CA62A03106A0DCA3E0F2787
:100538008A110319A62A8316CA01CB01CC01CD0161
:10054800CE01CF01831203106A0DD03E8400A1268C
:100558008A11CA3EE0268A116909CB057A0869051D
:100568006906031DC22A7A08073A0319C22A690BC9
:10057800C02A4D080319C22A6908C60403300310AB
:10058800E90DEA0A6A02031808006029E001E1019E
:10059800740873040319EF2ADF01DF0AF41BD82A51
:1005A8000310F30DF40DD12A0310E00DE10D7408CA
:1005B8007602031DE12A73087502031CEB2A7308EF
:1005C800F5027408031CF603F60260140310F40C19
:1005D800F30CDF0BD82A6108F4006008F300080068
:1005E80054085506031908001E30EB01540203187D
:1005F800012B1E305502031C042BD401D5010E2BF0
:1006080055085402540803180B2B55020D2B55029C
:100618001E3EEB0005306B02031C08005408A03E88
:10062800840083130008FE3A031D572C5408EC007D
:10063800EF016C08A03E84000008E8006F08583EEF
:100648008400680880001E30EC0A6C020318EC0174
:100658000530EF0A6F02031C1D2BEA01EF01EF0AB8
:100668006F08583E84000008EA060430EF0A6F025B
:10067800031C342BEA135C086A06031D572C9A30B6
:100688005A020318152C9A305B020318152C5908C6
:10069800DC393906031D3C2CBB01BB0ABA015A0ED2
:1006A8000F39F300E830F401F5000330F60069254E
:1006B8008A117408EE007308ED005A080F39F30028
:1006C8006430F401F500F60169258A11F0268A11D3
:1006D8005B0E0F39F3000A30F401F500F6016925C5
:1006E8008A11F0268A115B080F39ED070318EE0A04
:1006F800D91ABA2BCE2B61248A11CC01C501D70196
:10070800A601FD268A113C2C6E08A9006D08A800D8
:100718004C0B932BCC0161248A11A601A701450B30
:100728003C2CC501AA01AB0158258A113C2C6E0846
:10073800AB006D08AA004C0BA62BCC0161248A11D2
:10074800A601A701570B3C2CD701A801A901BF2579
:100758008A113C2C6E08A7006D08A600450BA62B35
:10076800C501AA01AB0158258A11A62BF7268A11C3
:10077800003A0319C02B142C6808003A03197F2B80
:10078800013A03199B2B033A0319882B013A0319E1
:10079800AE2B142C4C0BD52BCC0161248A11A6014D
:1007A800A701450BDC2BC501AA01AB0158258A110D
:1007B800570B002CD701A801A901BF258A11002CCD
:1007C80061248A113C2C6E08E4006D08E30027269A
:1007D8008A11BF01BF0ABD01BE013C2C6E08E400AE
:1007E8006D08E30064268A11ED2B6E08E4006D089D
:1007F800E30082258A11ED2BF7268A11003A0319A6
:10080800062C142C6808003A0319E42B013A031942
:10081800F22B033A0319E72B013A0319F92B142C8D
:100828003C2C5A08AA3A031D272C5B08BB3A031D27
:10083800272C5908DC39D0258A118312031359084B
:10084800B900DC30B9055A08CC3A031D3C2C5B08CA
:10085800DD3A031D3C2CD908031D3C2C1B268A11AC
:100868000313B900BB01BB0AE300E40182258A1126
:100878006C08540254080318432C6C02452C6C0273
:100888001E3EEB00EF016B086F02031808005408C6
:10089800A03E84001E3083138001D40A540203183A
:1008A800D401EF0A472C5408A03E84001E30800172
:1008B800D40A54020318D4010800F301F401DD241A
:1008C8008A11F301F401DD248A118616F7010C3030
:1008D800F70A7702031C6B2C86120800E300003A23
:1008E80003197E2C013A03199E2C033A0319BD2CD7
:1008F800DC2C08002F3084008A1500208A11F300B0
:100908008A1500208A11F400DD242F3084008A150E
:1009180000208A11F3008A1500208A11F400DD24D2
:100928008A118616E4010C30E40A6402031C972C31
:1009380086120800473084008A1500208A11F300C7
:100948008A1500208A11F4000625473084008A158C
:1009580000208A11F3008A1500208A11F400062568
:100968008A118616E4010C30E40A640203189C2CF0
:10097800B72C173084008A1500208A11F3008A15D5
:1009880000208A11F4002F25173084008A150020D2
:100998008A11F3008A1500208A11F4002F258A1184
:1009A8008616E4010C30E40A640203189C2CD62C49
:1009B800582D8030DF01E00086100611861286115E
:1009C800E1015F087305F50060087405F600750419
:1009D800031DF02C0610F12C0614E201E20A03199B
:1009E800F22C8615E2010530E20A6202031CF72C9C
:1009F800103086110310E00CDF0CE10A61020318C5
:100A08000800E52C8030DF01E00006100611861290
:100A18008611E1015F087305F50060087405F600AA
:100A28007504031D192D86101A2D8614E201E20A99
:100A380003191B2D8615E2010530E20A6202031C28
:100A4800202D103086110310E00CDF0CE10A610242
:100A5800031808000E2D8030DF01E0000610861014
:100A680086128611E1015F087305F50060087405B8
:100A7800F6007504031D422D0611432D0615E201EB
:100A8800E20A0319442D8615E2010530E20A6202E2
:100A9800031C492D103086110310E00CDF0CE10A0D
:100AA800610203180800372DF301F4012F258A117C
:100AB800F301F4012F258A118616F7010C30F70A85
:100AC8007702031C622D86120800DF01E001731C07
:100AD800732D7508DF070318E00A7608E00703108E
:100AE800F50DF60D0310F40CF30C74087304031DD4
:100AF8006B2D6008F4005F08F30008000030640202
:100B0800643003196302031C8B2D63308C2D63083A
:100B1800E7000A30F3006708E4258A11E6000A3086
:100B2800E6080319E600F3006708FF25E50003104F
:100B3800660D193E84008A1500208A11F3008A1573
:100B480000208A11F400DD240310650D193E84008D
:100B58008A1500208A11F3008A1500208A11F400F2
:100B6800DD248A118616E7010C30E70A6702031CA8
:100B7800B82D86120800F301F40106258A11F30145
:100B8800F40106258A118616F7010C30F70A770258
:100B9800031CC92D86120800F300103003178D00BE
:100BA80073088C00831655308C130C158B138D002D
:100BB800AA308D008C148B170C118C1C0800E12DA9
:100BC800F400F60173080319FD2DF501F50AF31B6E
:100BD800F02D0310F30DEA2D0310F60D73087402BF
:100BE800031CFA2D7308F40276140310F30CF50BAA
:100BF800F02D76080800F5000830F600F7017508B2
:100C0800F40007300310F40CFF3E0310031D072EF9
:100C1800770D7404F7000310F50D73087702031CB1
:100C2800172E7308F702F60B032E7708080010300A
:100C3800831203178D0083168C130C140000831283
:100C480003170C08080000306402643003196302BB
:100C5800031C302E6330312E6308E7000A30F3009E
:100C68006708E4258A11E6000A30E6080319E60059
:100C7800F3006708FF25E5000310660D313E840088
:100C88008A1500208A11F3008A1500208A11F400C1
:100C980006250310650D313E84008A1500208A114F
:100CA800F3008A1500208A11F40006258A11861699
:100CB800E7010C30E70A6702031C5D2E8612080064
:100CC80000306402643003196302031C6D2E633024
:100CD8006E2E6308E7000A30F3006708E4258A11DE
:100CE800E6000A30E6080319E600F3006708FF2566
:100CF800E5000310660D013E84008A1500208A1164
:100D0800F3008A1500208A11F4002F250310650DC1
:100D1800013E84008A1500208A11F3008A150020FC
:100D28008A11F4002F258A118616E7010C30E70A8C
:100D38006702031C9A2E861208000008E300840A42
:100D48000008E40003106A0D080084000008E300AE
:100D5800840A0008E40008006430F300F40103107A
:100D68006A0D2C3E080003106A0D203E840008001E
:100D7800E500840A0008E60063086502E7006408E5
:100D8800031C640A6602E800080084000008E50005
:100D9800840A0008E60064086602031D0800630868
:100DA8006502080003106A0D263E8400730880005F
:100DB800840A740880000800840063088000840A9C
:100DC8006408800008006308123EF50064080318F0
:100DD800013E003EF60008007308ED070318EE0A0E
:100DE8007408EE07080059080339E800E9016908A2
:100DF8000800A701A801A901AA01AB010800A801E0
:100E0800A901D201D20ABC01080003106A0D203ED4
:100E180084008313080084000008840A0004080082
:100E28002B08E4002A08E3000800083083168F0026
:100E3800031788018901031381178312860183161A
:100E480086011C30870083120730B801D601C9011A
:100E5800C700CB01F3017308323E84008001031000
:100E6800730DC43E85278A11BE3E85278A112C3E04
:100E780085278A11203E84008001840A8001730836
:100E8800353E840080010310730D8C278A11730886
:100E9800D63E840080010310730DD03E85278A1149
:100EA800CA3E840003308001840A8001F30A730279
:100EB800031C2F2F0730FA0083125530CF01D001C1
:100EC800CE01CC01C501D701BC01D301CA01C601BD
:100ED800CD00FF30D501D401BB01BA01B900033000
:100EE800BF01BD01BE018716C401C301C201C00113
:100EF800F901C101F800D101D201061286120613C8
:100F0800080084008001840A80010310730D080022
:100F1800263E84008001840A8001080079084F0673
:100F28000319B32F4F08F9000330C101F800500826
:100F38007905031DA82FB32FF801B32FF801F80A7C
:100F4800B32F0230F800B32F7908013A0319A02F04
:100F5800033A0319A22F063A0319A52FB32F03301A
:100F68007802031808006430C10A4102031C080013
:100F7800C1010310780D203EE8278A112C3EF12785
:100F88008A1160086202031DCB2F5F0861020318F3
:100F980008000310780D2C3EE8278A11203EF1271F
:100FA8008A115F086102E3006008031C600A62029C
:100FB800E400003064028D3003196302031C08004A
:100FC8000330D001F800080084000008DF00840A1C
:100FD8000008E0000310780D080084000008E10014
:100FE800840A0008E200080064008001840A0406FC
:100FF800031900340406F92F08308A000408840A0B
:1010080082070034FC343F3400340F34F3343C346A
:10101800C3343F340F340F34CF343334FF343334D4
:1010280000343F34FF343F34CF343F34003400348D
:1010380003340034FC343F3400340F34F3343C348C
:10104800C3343F340F340F34CF343334FF343334A4
:1010580000343F34FF343F34CF343F34003400345D
:1010680003340034FC343F3400340F34F3343C345C
:10107800C3343F340F340F34CF343334FF34333474
:1010880000343F34FF343F34CF343F34003400342D
:0410980003340034E9
:101A9E002130831290000C108316FB300C1483122D
:101AAE008F0085308E008C010B178B1708002030AD
:101ABE00F801F901FA01831384005F308A11F827C7
:101ACE008A15A0308400D9308A11F82783018A152F
:101ADE00812E8316181218110317871503139A01F6
:101AEE007730990083129817181683160C129816D1
:101AFE008312181383161813071787170B178B17D4
:101B0E008C160800831203130C1C942DFB300C1042
:101B1E008F0085308E00B801B80A8C1EA52D550891
:101B2E00A03E84001A08831380001E30D50A550289
:101B3E000318D501981CA52D1812181672088A00C4
:101B4E0071088400700E8300FE0E7E0E09007A1856
:101B5E00B22D5530CD007A080739073A031DC62D30
:101B6E006430CA0A4A02031CD32DCA01D001AC014B
:101B7E00AD01AE01AF01B001B101C601D32DCA0155
:101B8E00D32D3230CE0A4E02031C0800CE01D001F6
:101B9E00C6010800CE0108007A080739F300F401E7
:101BAE007408003A0319DC2DD12D7308003A03197D
:101BBE00C82D013A0319C82D033A0319C82D063A48
:101BCE000319C82DD12D08000730F501F50AC705F8
:101BDE0047087A06F300730803192E2EF6017308D0
:101BEE0075057506031D212E7608353E8400831378
:101BFE00800A7A0875057506031D132E7608353E84
:101C0E0084000A300002031C272E7608353E84001D
:101C1E0080017508FA06262E7509F4000730F405C2
:101C2E007A0874057406031D0C2E7608353E840062
:101C3E004B30092E7608353E840083138001031045
:101C4E000330F50DF60A760203180800F62DB501DD
:101C5E00B601B70108000708F3000310F30C0310D8
:101C6E00F30C7308C8000730C8054808043A031D72
:101C7E00422E0630C80048084706F40074080319BF
:101C8E007D2EF501F50AF601740875057506031D1E
:101C9E00632E470875057506031D692E7608323EBC
:101CAE0084008313800A7608323E840002300002DC
:101CBE00031C762E7508C7067608323E8400831301
:101CCE008001752E7608323E84008313800A7608D2
:101CDE00323E8400153000020318612E03100330CB
:101CEE00F50DF60A7602031808004B2EB201B30169
:101CFE00B40108008316DB018A1119278A158A158B
:101D0E00F4268A1506128A1161248A158A1158251D
:101D1E008A158A11BF258A158316D901DA01D90AC7
:101D2E000319DA0A17305A02703003195902031CCC
:101D3E00962E0230DB0A5B02031C832E8A154F257A
:101D4E008A158A1570258A158A111B268A15031382
:101D5E00B900831615308111831203178500031302
:101D6E00380BDC2EB801D60AC00A8A1532268A151F
:101D7E000A30D30A5302031CD92ED3018A15EB2540
:101D8E008A158A115B218A158A1160208A158A1597
:101D9E00AE258A153F0BD62E8A110F208A158A1171
:101DAE0092278A158A11F4228A15F0305602031CE6
:101DBE00EE2ED601640083120313C908031DEB2E09
:101DCE000613C901C90AEE2E0617C901871632304D
:101DDE004002031CB62EC001B62E8616F601023046
:101DEE00F60A7602031CF62E8611F6010230F60A6A
:101DFE007602031CFD2E8615F6010230F60A7602D7
:101E0E00031C042F8611F6010230F60A7602031C1B
:101E1E000B2F8615F6010230F60A7602031C122FDE
:101E2E008611F6010230F60A7602031C192F86156A
:101E3E00F6010230F60A7602031C202F8611F601F7
:101E4E000230F60A7602031C272F8615F6010230A1
:101E5E00F60A7602031C2E2F8611F6010230F60AC0
:101E6E007602031C352F8612F6010230F60A760230
:101E7E00031C3C2F4030F300F400F5017308740589
:101E8E0003194C2F073086044E2FF8308605F601C5
:101E9E000230F60A7602031C4F2F8615F601063025
:101EAE00F60A7602031C562F0730FA278A15031CF2
:101EBE00452F07308604F6010230F60A7602031C1F
:101ECE00632F8615F6010230F60A7602031C6A2F7E
:101EDE008611F6010230F60A7602031C712FF830D5
:101EEE008605F6010230F60A7602031C792F861556
:101EFE00F6010230F60A7602031C802FF8308611A6
:101F0E008605F6010230F60A7602031C892F861525
:101F1E00F6010230F60A7602031C902F403086112D
:101F2E00F300F400F501730874050319A12F0730AF
:101F3E008604A32FF8308605F6010230F60A7602E3
:101F4E00031CA42F8615F6010630F60A7602031C32
:101F5E00AB2F0730FA278A15031C9A2F07308604F9
:101F6E00F6010230F60A7602031CB82F8615F6012A
:101F7E000230F60A7602031CBF2F8611F6010230DC
:101F8E00F60A7602031CC62FF8308605F6010230DB
:101F9E00F60A7602031CCE2F8615F6010230F60ADB
:101FAE007602031CD52FF83086118605F601023015
:101FBE00F60A7602031CDE2F8615F6010230F60AAB
:101FCE007602031CE52F8611F6010230F60A760220
:101FDE00031CEC2F8616F6010230F60A7602031C5D
:101FEE00F32F8612080086110310F40CF50A750201
:021FFE000800D9
:04400E00A223FF3FAB
:00000001FF
